{
  "_format": "hh-sol-artifact-1",
  "contractName": "AIstronaut",
  "sourceName": "contracts/AIstronaut.sol",
  "abi": [
    {
      "inputs": [
        {
          "internalType": "address",
          "name": "adminAddress",
          "type": "address"
        }
      ],
      "stateMutability": "nonpayable",
      "type": "constructor"
    },
    {
      "inputs": [
        {
          "internalType": "address",
          "name": "sender",
          "type": "address"
        },
        {
          "internalType": "uint256",
          "name": "tokenId",
          "type": "uint256"
        },
        {
          "internalType": "address",
          "name": "owner",
          "type": "address"
        }
      ],
      "name": "ERC721IncorrectOwner",
      "type": "error"
    },
    {
      "inputs": [
        {
          "internalType": "address",
          "name": "operator",
          "type": "address"
        },
        {
          "internalType": "uint256",
          "name": "tokenId",
          "type": "uint256"
        }
      ],
      "name": "ERC721InsufficientApproval",
      "type": "error"
    },
    {
      "inputs": [
        {
          "internalType": "address",
          "name": "approver",
          "type": "address"
        }
      ],
      "name": "ERC721InvalidApprover",
      "type": "error"
    },
    {
      "inputs": [
        {
          "internalType": "address",
          "name": "operator",
          "type": "address"
        }
      ],
      "name": "ERC721InvalidOperator",
      "type": "error"
    },
    {
      "inputs": [
        {
          "internalType": "address",
          "name": "owner",
          "type": "address"
        }
      ],
      "name": "ERC721InvalidOwner",
      "type": "error"
    },
    {
      "inputs": [
        {
          "internalType": "address",
          "name": "receiver",
          "type": "address"
        }
      ],
      "name": "ERC721InvalidReceiver",
      "type": "error"
    },
    {
      "inputs": [
        {
          "internalType": "address",
          "name": "sender",
          "type": "address"
        }
      ],
      "name": "ERC721InvalidSender",
      "type": "error"
    },
    {
      "inputs": [
        {
          "internalType": "uint256",
          "name": "tokenId",
          "type": "uint256"
        }
      ],
      "name": "ERC721NonexistentToken",
      "type": "error"
    },
    {
      "inputs": [
        {
          "internalType": "address",
          "name": "owner",
          "type": "address"
        }
      ],
      "name": "OwnableInvalidOwner",
      "type": "error"
    },
    {
      "inputs": [
        {
          "internalType": "address",
          "name": "account",
          "type": "address"
        }
      ],
      "name": "OwnableUnauthorizedAccount",
      "type": "error"
    },
    {
      "inputs": [],
      "name": "ReentrancyGuardReentrantCall",
      "type": "error"
    },
    {
      "anonymous": false,
      "inputs": [
        {
          "indexed": true,
          "internalType": "uint256",
          "name": "tokenId",
          "type": "uint256"
        },
        {
          "indexed": false,
          "internalType": "string",
          "name": "name",
          "type": "string"
        },
        {
          "indexed": true,
          "internalType": "address",
          "name": "owner",
          "type": "address"
        }
      ],
      "name": "AgentCreated",
      "type": "event"
    },
    {
      "anonymous": false,
      "inputs": [
        {
          "indexed": true,
          "internalType": "uint256",
          "name": "tokenId",
          "type": "uint256"
        },
        {
          "indexed": false,
          "internalType": "uint256",
          "name": "strength",
          "type": "uint256"
        },
        {
          "indexed": false,
          "internalType": "uint256",
          "name": "intelligence",
          "type": "uint256"
        },
        {
          "indexed": false,
          "internalType": "uint256",
          "name": "survivalInstinct",
          "type": "uint256"
        }
      ],
      "name": "AgentUpdated",
      "type": "event"
    },
    {
      "anonymous": false,
      "inputs": [
        {
          "indexed": true,
          "internalType": "address",
          "name": "owner",
          "type": "address"
        },
        {
          "indexed": true,
          "internalType": "address",
          "name": "approved",
          "type": "address"
        },
        {
          "indexed": true,
          "internalType": "uint256",
          "name": "tokenId",
          "type": "uint256"
        }
      ],
      "name": "Approval",
      "type": "event"
    },
    {
      "anonymous": false,
      "inputs": [
        {
          "indexed": true,
          "internalType": "address",
          "name": "owner",
          "type": "address"
        },
        {
          "indexed": true,
          "internalType": "address",
          "name": "operator",
          "type": "address"
        },
        {
          "indexed": false,
          "internalType": "bool",
          "name": "approved",
          "type": "bool"
        }
      ],
      "name": "ApprovalForAll",
      "type": "event"
    },
    {
      "anonymous": false,
      "inputs": [
        {
          "indexed": false,
          "internalType": "uint256[]",
          "name": "rankedAgents",
          "type": "uint256[]"
        }
      ],
      "name": "LeaderboardUpdated",
      "type": "event"
    },
    {
      "anonymous": false,
      "inputs": [
        {
          "indexed": true,
          "internalType": "address",
          "name": "previousOwner",
          "type": "address"
        },
        {
          "indexed": true,
          "internalType": "address",
          "name": "newOwner",
          "type": "address"
        }
      ],
      "name": "OwnershipTransferred",
      "type": "event"
    },
    {
      "anonymous": false,
      "inputs": [
        {
          "indexed": true,
          "internalType": "uint256",
          "name": "agentId",
          "type": "uint256"
        },
        {
          "indexed": false,
          "internalType": "uint256",
          "name": "amount",
          "type": "uint256"
        }
      ],
      "name": "PointsPurchased",
      "type": "event"
    },
    {
      "anonymous": false,
      "inputs": [
        {
          "indexed": true,
          "internalType": "address",
          "name": "from",
          "type": "address"
        },
        {
          "indexed": true,
          "internalType": "address",
          "name": "to",
          "type": "address"
        },
        {
          "indexed": true,
          "internalType": "uint256",
          "name": "tokenId",
          "type": "uint256"
        }
      ],
      "name": "Transfer",
      "type": "event"
    },
    {
      "inputs": [
        {
          "internalType": "uint256",
          "name": "",
          "type": "uint256"
        }
      ],
      "name": "agents",
      "outputs": [
        {
          "internalType": "string",
          "name": "name",
          "type": "string"
        },
        {
          "internalType": "address",
          "name": "ownerAddress",
          "type": "address"
        },
        {
          "internalType": "string",
          "name": "avatarId",
          "type": "string"
        },
        {
          "internalType": "string",
          "name": "bio",
          "type": "string"
        },
        {
          "internalType": "uint256",
          "name": "strength",
          "type": "uint256"
        },
        {
          "internalType": "uint256",
          "name": "intelligence",
          "type": "uint256"
        },
        {
          "internalType": "uint256",
          "name": "survivalInstinct",
          "type": "uint256"
        },
        {
          "internalType": "uint256",
          "name": "unusedPoints",
          "type": "uint256"
        },
        {
          "internalType": "uint256",
          "name": "score",
          "type": "uint256"
        },
        {
          "internalType": "uint256",
          "name": "totalAttributes",
          "type": "uint256"
        }
      ],
      "stateMutability": "view",
      "type": "function"
    },
    {
      "inputs": [
        {
          "internalType": "uint256",
          "name": "",
          "type": "uint256"
        }
      ],
      "name": "allAgentIds",
      "outputs": [
        {
          "internalType": "uint256",
          "name": "",
          "type": "uint256"
        }
      ],
      "stateMutability": "view",
      "type": "function"
    },
    {
      "inputs": [
        {
          "internalType": "address",
          "name": "to",
          "type": "address"
        },
        {
          "internalType": "uint256",
          "name": "tokenId",
          "type": "uint256"
        }
      ],
      "name": "approve",
      "outputs": [],
      "stateMutability": "nonpayable",
      "type": "function"
    },
    {
      "inputs": [
        {
          "internalType": "address",
          "name": "owner",
          "type": "address"
        }
      ],
      "name": "balanceOf",
      "outputs": [
        {
          "internalType": "uint256",
          "name": "",
          "type": "uint256"
        }
      ],
      "stateMutability": "view",
      "type": "function"
    },
    {
      "inputs": [],
      "name": "contractAdmin",
      "outputs": [
        {
          "internalType": "address",
          "name": "",
          "type": "address"
        }
      ],
      "stateMutability": "view",
      "type": "function"
    },
    {
      "inputs": [
        {
          "internalType": "string",
          "name": "name",
          "type": "string"
        },
        {
          "internalType": "address",
          "name": "ownerAddress",
          "type": "address"
        },
        {
          "internalType": "string",
          "name": "avatarId",
          "type": "string"
        },
        {
          "internalType": "string",
          "name": "bio",
          "type": "string"
        },
        {
          "internalType": "uint256",
          "name": "strength",
          "type": "uint256"
        },
        {
          "internalType": "uint256",
          "name": "intelligence",
          "type": "uint256"
        },
        {
          "internalType": "uint256",
          "name": "survivalInstinct",
          "type": "uint256"
        }
      ],
      "name": "createAgent",
      "outputs": [],
      "stateMutability": "nonpayable",
      "type": "function"
    },
    {
      "inputs": [
        {
          "internalType": "uint256",
          "name": "tokenId",
          "type": "uint256"
        }
      ],
      "name": "getAgentDetails",
      "outputs": [
        {
          "internalType": "string",
          "name": "name",
          "type": "string"
        },
        {
          "internalType": "address",
          "name": "ownerAddress",
          "type": "address"
        },
        {
          "internalType": "string",
          "name": "avatarId",
          "type": "string"
        },
        {
          "internalType": "string",
          "name": "bio",
          "type": "string"
        },
        {
          "internalType": "uint256",
          "name": "strength",
          "type": "uint256"
        },
        {
          "internalType": "uint256",
          "name": "intelligence",
          "type": "uint256"
        },
        {
          "internalType": "uint256",
          "name": "survivalInstinct",
          "type": "uint256"
        },
        {
          "internalType": "uint256",
          "name": "unusedPoints",
          "type": "uint256"
        },
        {
          "internalType": "uint256",
          "name": "score",
          "type": "uint256"
        },
        {
          "internalType": "uint256",
          "name": "totalAttributes",
          "type": "uint256"
        }
      ],
      "stateMutability": "view",
      "type": "function"
    },
    {
      "inputs": [
        {
          "internalType": "address",
          "name": "owner",
          "type": "address"
        }
      ],
      "name": "getAgentsByOwner",
      "outputs": [
        {
          "internalType": "uint256[]",
          "name": "tokenIds",
          "type": "uint256[]"
        },
        {
          "internalType": "string[]",
          "name": "names",
          "type": "string[]"
        },
        {
          "internalType": "string[]",
          "name": "avatarIds",
          "type": "string[]"
        },
        {
          "internalType": "string[]",
          "name": "bios",
          "type": "string[]"
        },
        {
          "internalType": "uint256[]",
          "name": "strengths",
          "type": "uint256[]"
        },
        {
          "internalType": "uint256[]",
          "name": "intelligences",
          "type": "uint256[]"
        },
        {
          "internalType": "uint256[]",
          "name": "survivalInstincts",
          "type": "uint256[]"
        },
        {
          "internalType": "uint256[]",
          "name": "unusedPoints",
          "type": "uint256[]"
        },
        {
          "internalType": "uint256[]",
          "name": "scores",
          "type": "uint256[]"
        },
        {
          "internalType": "uint256[]",
          "name": "totalAttributes",
          "type": "uint256[]"
        }
      ],
      "stateMutability": "view",
      "type": "function"
    },
    {
      "inputs": [],
      "name": "getAllAgents",
      "outputs": [
        {
          "internalType": "uint256[]",
          "name": "tokenIds",
          "type": "uint256[]"
        },
        {
          "internalType": "string[]",
          "name": "names",
          "type": "string[]"
        },
        {
          "internalType": "address[]",
          "name": "owners",
          "type": "address[]"
        }
      ],
      "stateMutability": "view",
      "type": "function"
    },
    {
      "inputs": [
        {
          "internalType": "uint256",
          "name": "tokenId",
          "type": "uint256"
        }
      ],
      "name": "getApproved",
      "outputs": [
        {
          "internalType": "address",
          "name": "",
          "type": "address"
        }
      ],
      "stateMutability": "view",
      "type": "function"
    },
    {
      "inputs": [],
      "name": "getLeaderboard",
      "outputs": [
        {
          "internalType": "uint256[]",
          "name": "tokenIds",
          "type": "uint256[]"
        },
        {
          "internalType": "uint256[]",
          "name": "scores",
          "type": "uint256[]"
        }
      ],
      "stateMutability": "view",
      "type": "function"
    },
    {
      "inputs": [
        {
          "internalType": "address",
          "name": "owner",
          "type": "address"
        },
        {
          "internalType": "uint256",
          "name": "tokenId",
          "type": "uint256"
        }
      ],
      "name": "isAgentOwner",
      "outputs": [
        {
          "internalType": "bool",
          "name": "",
          "type": "bool"
        }
      ],
      "stateMutability": "view",
      "type": "function"
    },
    {
      "inputs": [
        {
          "internalType": "address",
          "name": "owner",
          "type": "address"
        },
        {
          "internalType": "address",
          "name": "operator",
          "type": "address"
        }
      ],
      "name": "isApprovedForAll",
      "outputs": [
        {
          "internalType": "bool",
          "name": "",
          "type": "bool"
        }
      ],
      "stateMutability": "view",
      "type": "function"
    },
    {
      "inputs": [],
      "name": "name",
      "outputs": [
        {
          "internalType": "string",
          "name": "",
          "type": "string"
        }
      ],
      "stateMutability": "view",
      "type": "function"
    },
    {
      "inputs": [],
      "name": "owner",
      "outputs": [
        {
          "internalType": "address",
          "name": "",
          "type": "address"
        }
      ],
      "stateMutability": "view",
      "type": "function"
    },
    {
      "inputs": [
        {
          "internalType": "uint256",
          "name": "tokenId",
          "type": "uint256"
        }
      ],
      "name": "ownerOf",
      "outputs": [
        {
          "internalType": "address",
          "name": "",
          "type": "address"
        }
      ],
      "stateMutability": "view",
      "type": "function"
    },
    {
      "inputs": [],
      "name": "pointPrice",
      "outputs": [
        {
          "internalType": "uint256",
          "name": "",
          "type": "uint256"
        }
      ],
      "stateMutability": "view",
      "type": "function"
    },
    {
      "inputs": [
        {
          "internalType": "uint256",
          "name": "agentId",
          "type": "uint256"
        }
      ],
      "name": "purchasePoints",
      "outputs": [],
      "stateMutability": "payable",
      "type": "function"
    },
    {
      "inputs": [
        {
          "internalType": "uint256",
          "name": "",
          "type": "uint256"
        }
      ],
      "name": "rankedAgents",
      "outputs": [
        {
          "internalType": "uint256",
          "name": "",
          "type": "uint256"
        }
      ],
      "stateMutability": "view",
      "type": "function"
    },
    {
      "inputs": [],
      "name": "renounceOwnership",
      "outputs": [],
      "stateMutability": "nonpayable",
      "type": "function"
    },
    {
      "inputs": [
        {
          "internalType": "address",
          "name": "from",
          "type": "address"
        },
        {
          "internalType": "address",
          "name": "to",
          "type": "address"
        },
        {
          "internalType": "uint256",
          "name": "tokenId",
          "type": "uint256"
        }
      ],
      "name": "safeTransferFrom",
      "outputs": [],
      "stateMutability": "nonpayable",
      "type": "function"
    },
    {
      "inputs": [
        {
          "internalType": "address",
          "name": "from",
          "type": "address"
        },
        {
          "internalType": "address",
          "name": "to",
          "type": "address"
        },
        {
          "internalType": "uint256",
          "name": "tokenId",
          "type": "uint256"
        },
        {
          "internalType": "bytes",
          "name": "data",
          "type": "bytes"
        }
      ],
      "name": "safeTransferFrom",
      "outputs": [],
      "stateMutability": "nonpayable",
      "type": "function"
    },
    {
      "inputs": [
        {
          "internalType": "address",
          "name": "operator",
          "type": "address"
        },
        {
          "internalType": "bool",
          "name": "approved",
          "type": "bool"
        }
      ],
      "name": "setApprovalForAll",
      "outputs": [],
      "stateMutability": "nonpayable",
      "type": "function"
    },
    {
      "inputs": [
        {
          "internalType": "bytes4",
          "name": "interfaceId",
          "type": "bytes4"
        }
      ],
      "name": "supportsInterface",
      "outputs": [
        {
          "internalType": "bool",
          "name": "",
          "type": "bool"
        }
      ],
      "stateMutability": "view",
      "type": "function"
    },
    {
      "inputs": [],
      "name": "symbol",
      "outputs": [
        {
          "internalType": "string",
          "name": "",
          "type": "string"
        }
      ],
      "stateMutability": "view",
      "type": "function"
    },
    {
      "inputs": [
        {
          "internalType": "uint256",
          "name": "tokenId",
          "type": "uint256"
        }
      ],
      "name": "tokenURI",
      "outputs": [
        {
          "internalType": "string",
          "name": "",
          "type": "string"
        }
      ],
      "stateMutability": "view",
      "type": "function"
    },
    {
      "inputs": [
        {
          "internalType": "address",
          "name": "from",
          "type": "address"
        },
        {
          "internalType": "address",
          "name": "to",
          "type": "address"
        },
        {
          "internalType": "uint256",
          "name": "tokenId",
          "type": "uint256"
        }
      ],
      "name": "transferFrom",
      "outputs": [],
      "stateMutability": "nonpayable",
      "type": "function"
    },
    {
      "inputs": [
        {
          "internalType": "address",
          "name": "newOwner",
          "type": "address"
        }
      ],
      "name": "transferOwnership",
      "outputs": [],
      "stateMutability": "nonpayable",
      "type": "function"
    },
    {
      "inputs": [
        {
          "internalType": "uint256",
          "name": "tokenId",
          "type": "uint256"
        },
        {
          "internalType": "uint256",
          "name": "strength",
          "type": "uint256"
        },
        {
          "internalType": "uint256",
          "name": "intelligence",
          "type": "uint256"
        },
        {
          "internalType": "uint256",
          "name": "survivalInstinct",
          "type": "uint256"
        },
        {
          "internalType": "uint256",
          "name": "unusedPoints",
          "type": "uint256"
        },
        {
          "internalType": "uint256",
          "name": "score",
          "type": "uint256"
        }
      ],
      "name": "updateAgent",
      "outputs": [],
      "stateMutability": "nonpayable",
      "type": "function"
    },
    {
      "inputs": [],
      "name": "updateLeaderboard",
      "outputs": [],
      "stateMutability": "nonpayable",
      "type": "function"
    },
    {
      "inputs": [
        {
          "internalType": "uint256",
          "name": "newPrice",
          "type": "uint256"
        }
      ],
      "name": "updatePointPrice",
      "outputs": [],
      "stateMutability": "nonpayable",
      "type": "function"
    },
    {
      "inputs": [
        {
          "internalType": "address",
          "name": "recipient",
          "type": "address"
        }
      ],
      "name": "withdrawIncome",
      "outputs": [],
      "stateMutability": "nonpayable",
      "type": "function"
    }
  ],
  "bytecode": "0x6080604052655af3107a4000600b553480156200001b57600080fd5b506040516200583f3803806200583f8339818101604052810190620000419190620002db565b806040518060400160405280601081526020017f41497374726f6e617574204167656e74000000000000000000000000000000008152506040518060400160405280600481526020017f41494147000000000000000000000000000000000000000000000000000000008152508160009081620000bf919062000587565b508060019081620000d1919062000587565b505050600073ffffffffffffffffffffffffffffffffffffffff168173ffffffffffffffffffffffffffffffffffffffff1603620001495760006040517f1e4fbdf70000000000000000000000000000000000000000000000000000000081526004016200014091906200067f565b60405180910390fd5b6200015a81620001ab60201b60201c565b50600160078190555080600d60006101000a81548173ffffffffffffffffffffffffffffffffffffffff021916908373ffffffffffffffffffffffffffffffffffffffff160217905550506200069c565b6000600660009054906101000a900473ffffffffffffffffffffffffffffffffffffffff16905081600660006101000a81548173ffffffffffffffffffffffffffffffffffffffff021916908373ffffffffffffffffffffffffffffffffffffffff1602179055508173ffffffffffffffffffffffffffffffffffffffff168173ffffffffffffffffffffffffffffffffffffffff167f8be0079c531659141344cd1fd0a4f28419497f9722a3daafe3b4186f6b6457e060405160405180910390a35050565b600080fd5b600073ffffffffffffffffffffffffffffffffffffffff82169050919050565b6000620002a38262000276565b9050919050565b620002b58162000296565b8114620002c157600080fd5b50565b600081519050620002d581620002aa565b92915050565b600060208284031215620002f457620002f362000271565b5b60006200030484828501620002c4565b91505092915050565b600081519050919050565b7f4e487b7100000000000000000000000000000000000000000000000000000000600052604160045260246000fd5b7f4e487b7100000000000000000000000000000000000000000000000000000000600052602260045260246000fd5b600060028204905060018216806200038f57607f821691505b602082108103620003a557620003a462000347565b5b50919050565b60008190508160005260206000209050919050565b60006020601f8301049050919050565b600082821b905092915050565b6000600883026200040f7fffffffffffffffffffffffffffffffffffffffffffffffffffffffffffffffff82620003d0565b6200041b8683620003d0565b95508019841693508086168417925050509392505050565b6000819050919050565b6000819050919050565b600062000468620004626200045c8462000433565b6200043d565b62000433565b9050919050565b6000819050919050565b620004848362000447565b6200049c62000493826200046f565b848454620003dd565b825550505050565b600090565b620004b3620004a4565b620004c081848462000479565b505050565b5b81811015620004e857620004dc600082620004a9565b600181019050620004c6565b5050565b601f82111562000537576200050181620003ab565b6200050c84620003c0565b810160208510156200051c578190505b620005346200052b85620003c0565b830182620004c5565b50505b505050565b600082821c905092915050565b60006200055c600019846008026200053c565b1980831691505092915050565b600062000577838362000549565b9150826002028217905092915050565b62000592826200030d565b67ffffffffffffffff811115620005ae57620005ad62000318565b5b620005ba825462000376565b620005c7828285620004ec565b600060209050601f831160018114620005ff5760008415620005ea578287015190505b620005f6858262000569565b86555062000666565b601f1984166200060f86620003ab565b60005b82811015620006395784890151825560018201915060208501945060208101905062000612565b8683101562000659578489015162000655601f89168262000549565b8355505b6001600288020188555050505b505050505050565b620006798162000296565b82525050565b60006020820190506200069660008301846200066e565b92915050565b61519380620006ac6000396000f3fe6080604052600436106101e35760003560e01c806370a0823111610102578063a22cb46511610095578063caca161111610064578063caca16111461071e578063d8b7b99f14610747578063e985e9c51461078d578063f2fde38b146107ca576101e3565b8063a22cb46514610673578063b88d4fde1461069c578063c75a0103146106c5578063c87b56dd146106e1576101e3565b80638da5cb5b116100d15780638da5cb5b146105b757806395d89b41146105e257806398be7c8d1461060d5780639a0279091461064a576101e3565b806370a082311461050b578063715018a614610548578063779552451461055f578063860e4ac61461058a576101e3565b806323b872dd1161017a578063513856c811610149578063513856c81461044557806353734b021461048b5780636352211e146104a25780636d763a6e146104df576101e3565b806323b872dd1461038d578063256fe1c1146103b657806342842e0e146103df5780634744f2c914610408576101e3565b8063081812fc116101b6578063081812fc146102b6578063095ea7b3146102f35780630ed8867c1461031c5780631ab6f88814610347576101e3565b806301ffc9a7146101e857806304e110c11461022557806306fdde031461026257806307849d911461028d575b600080fd5b3480156101f457600080fd5b5061020f600480360381019061020a9190613a2c565b6107f3565b60405161021c9190613a74565b60405180910390f35b34801561023157600080fd5b5061024c60048036038101906102479190613ac5565b6108d5565b6040516102599190613b01565b60405180910390f35b34801561026e57600080fd5b506102776108f9565b6040516102849190613bac565b60405180910390f35b34801561029957600080fd5b506102b460048036038101906102af9190613bce565b61098b565b005b3480156102c257600080fd5b506102dd60048036038101906102d89190613ac5565b610c75565b6040516102ea9190613c9c565b60405180910390f35b3480156102ff57600080fd5b5061031a60048036038101906103159190613ce3565b610c91565b005b34801561032857600080fd5b50610331610ca7565b60405161033e9190613b01565b60405180910390f35b34801561035357600080fd5b5061036e60048036038101906103699190613d23565b610cad565b6040516103849a99989796959493929190613f1a565b60405180910390f35b34801561039957600080fd5b506103b460048036038101906103af9190613ffc565b61146e565b005b3480156103c257600080fd5b506103dd60048036038101906103d89190613d23565b611570565b005b3480156103eb57600080fd5b5061040660048036038101906104019190613ffc565b611693565b005b34801561041457600080fd5b5061042f600480360381019061042a9190613ce3565b6116b3565b60405161043c9190613a74565b60405180910390f35b34801561045157600080fd5b5061046c60048036038101906104679190613ac5565b611722565b6040516104829a9998979695949392919061404f565b60405180910390f35b34801561049757600080fd5b506104a061192e565b005b3480156104ae57600080fd5b506104c960048036038101906104c49190613ac5565b611af1565b6040516104d69190613c9c565b60405180910390f35b3480156104eb57600080fd5b506104f4611b03565b604051610502929190614100565b60405180910390f35b34801561051757600080fd5b50610532600480360381019061052d9190613d23565b611c5c565b60405161053f9190613b01565b60405180910390f35b34801561055457600080fd5b5061055d611d16565b005b34801561056b57600080fd5b50610574611d2a565b6040516105819190613c9c565b60405180910390f35b34801561059657600080fd5b5061059f611d50565b6040516105ae939291906141f5565b60405180910390f35b3480156105c357600080fd5b506105cc611fef565b6040516105d99190613c9c565b60405180910390f35b3480156105ee57600080fd5b506105f7612019565b6040516106049190613bac565b60405180910390f35b34801561061957600080fd5b50610634600480360381019061062f9190613ac5565b6120ab565b6040516106419190613b01565b60405180910390f35b34801561065657600080fd5b50610671600480360381019061066c9190613ac5565b6120cf565b005b34801561067f57600080fd5b5061069a6004803603810190610695919061426d565b612169565b005b3480156106a857600080fd5b506106c360048036038101906106be91906143e2565b61217f565b005b6106df60048036038101906106da9190613ac5565b6121a4565b005b3480156106ed57600080fd5b5061070860048036038101906107039190613ac5565b612324565b6040516107159190613bac565b60405180910390f35b34801561072a57600080fd5b5061074560048036038101906107409190614506565b61238d565b005b34801561075357600080fd5b5061076e60048036038101906107699190613ac5565b61270b565b6040516107849a9998979695949392919061404f565b60405180910390f35b34801561079957600080fd5b506107b460048036038101906107af91906145fc565b6129dc565b6040516107c19190613a74565b60405180910390f35b3480156107d657600080fd5b506107f160048036038101906107ec9190613d23565b612a70565b005b60007f80ac58cd000000000000000000000000000000000000000000000000000000007bffffffffffffffffffffffffffffffffffffffffffffffffffffffff1916827bffffffffffffffffffffffffffffffffffffffffffffffffffffffff191614806108be57507f5b5e139f000000000000000000000000000000000000000000000000000000007bffffffffffffffffffffffffffffffffffffffffffffffffffffffff1916827bffffffffffffffffffffffffffffffffffffffffffffffffffffffff1916145b806108ce57506108cd82612af6565b5b9050919050565b600a81815481106108e557600080fd5b906000526020600020016000915090505481565b6060600080546109089061466b565b80601f01602080910402602001604051908101604052809291908181526020018280546109349061466b565b80156109815780601f1061095657610100808354040283529160200191610981565b820191906000526020600020905b81548152906001019060200180831161096457829003601f168201915b5050505050905090565b60008611801561099d57506009548611155b6109dc576040517f08c379a00000000000000000000000000000000000000000000000000000000081526004016109d3906146e8565b60405180910390fd5b600073ffffffffffffffffffffffffffffffffffffffff166008600088815260200190815260200160002060010160009054906101000a900473ffffffffffffffffffffffffffffffffffffffff1673ffffffffffffffffffffffffffffffffffffffff1603610a81576040517f08c379a0000000000000000000000000000000000000000000000000000000008152600401610a78906146e8565b60405180910390fd5b6008600087815260200190815260200160002060010160009054906101000a900473ffffffffffffffffffffffffffffffffffffffff1673ffffffffffffffffffffffffffffffffffffffff163373ffffffffffffffffffffffffffffffffffffffff1614610b25576040517f08c379a0000000000000000000000000000000000000000000000000000000008152600401610b1c90614754565b60405180910390fd5b600060086000888152602001908152602001600020905060008160070154826006015483600501548460040154610b5c91906147a3565b610b6691906147a3565b610b7091906147a3565b905060008486888a610b8291906147a3565b610b8c91906147a3565b610b9691906147a3565b9050818114610bda576040517f08c379a0000000000000000000000000000000000000000000000000000000008152600401610bd190614823565b60405180910390fd5b878360040181905550868360050181905550858360060181905550848360070181905550838360080181905550858789610c1491906147a3565b610c1e91906147a3565b8360090181905550887fbed984f800943b3574effa8a226bfbe933b587a3a907ae97328edbc0f2540d64898989604051610c5a93929190614843565b60405180910390a2610c6a61192e565b505050505050505050565b6000610c8082612b60565b50610c8a82612be8565b9050919050565b610ca38282610c9e612c25565b612c2d565b5050565b600b5481565b6060806060806060806060806060806000600e60008d73ffffffffffffffffffffffffffffffffffffffff1673ffffffffffffffffffffffffffffffffffffffff168152602001908152602001600020805480602002602001604051908101604052809291908181526020018280548015610d4757602002820191906000526020600020905b815481526020019060010190808311610d33575b505050505090506000815190508067ffffffffffffffff811115610d6e57610d6d6142b7565b5b604051908082528060200260200182016040528015610d9c5781602001602082028036833780820191505090505b509b508067ffffffffffffffff811115610db957610db86142b7565b5b604051908082528060200260200182016040528015610dec57816020015b6060815260200190600190039081610dd75790505b509a508067ffffffffffffffff811115610e0957610e086142b7565b5b604051908082528060200260200182016040528015610e3c57816020015b6060815260200190600190039081610e275790505b5099508067ffffffffffffffff811115610e5957610e586142b7565b5b604051908082528060200260200182016040528015610e8c57816020015b6060815260200190600190039081610e775790505b5098508067ffffffffffffffff811115610ea957610ea86142b7565b5b604051908082528060200260200182016040528015610ed75781602001602082028036833780820191505090505b5097508067ffffffffffffffff811115610ef457610ef36142b7565b5b604051908082528060200260200182016040528015610f225781602001602082028036833780820191505090505b5096508067ffffffffffffffff811115610f3f57610f3e6142b7565b5b604051908082528060200260200182016040528015610f6d5781602001602082028036833780820191505090505b5095508067ffffffffffffffff811115610f8a57610f896142b7565b5b604051908082528060200260200182016040528015610fb85781602001602082028036833780820191505090505b5094508067ffffffffffffffff811115610fd557610fd46142b7565b5b6040519080825280602002602001820160405280156110035781602001602082028036833780820191505090505b5093508067ffffffffffffffff8111156110205761101f6142b7565b5b60405190808252806020026020018201604052801561104e5781602001602082028036833780820191505090505b50925060005b8181101561145e5760008382815181106110715761107061487a565b5b60200260200101519050600060086000838152602001908152602001600020604051806101400160405290816000820180546110ac9061466b565b80601f01602080910402602001604051908101604052809291908181526020018280546110d89061466b565b80156111255780601f106110fa57610100808354040283529160200191611125565b820191906000526020600020905b81548152906001019060200180831161110857829003601f168201915b505050505081526020016001820160009054906101000a900473ffffffffffffffffffffffffffffffffffffffff1673ffffffffffffffffffffffffffffffffffffffff1673ffffffffffffffffffffffffffffffffffffffff1681526020016002820180546111949061466b565b80601f01602080910402602001604051908101604052809291908181526020018280546111c09061466b565b801561120d5780601f106111e25761010080835404028352916020019161120d565b820191906000526020600020905b8154815290600101906020018083116111f057829003601f168201915b505050505081526020016003820180546112269061466b565b80601f01602080910402602001604051908101604052809291908181526020018280546112529061466b565b801561129f5780601f106112745761010080835404028352916020019161129f565b820191906000526020600020905b81548152906001019060200180831161128257829003601f168201915b5050505050815260200160048201548152602001600582015481526020016006820154815260200160078201548152602001600882015481526020016009820154815250509050818f84815181106112fa576112f961487a565b5b60200260200101818152505080600001518e848151811061131e5761131d61487a565b5b602002602001018190525080604001518d84815181106113415761134061487a565b5b602002602001018190525080606001518c84815181106113645761136361487a565b5b602002602001018190525080608001518b84815181106113875761138661487a565b5b6020026020010181815250508060a001518a84815181106113ab576113aa61487a565b5b6020026020010181815250508060c001518984815181106113cf576113ce61487a565b5b6020026020010181815250508060e001518884815181106113f3576113f261487a565b5b6020026020010181815250508061010001518784815181106114185761141761487a565b5b60200260200101818152505080610120015186848151811061143d5761143c61487a565b5b60200260200101818152505050508080611456906148a9565b915050611054565b5050509193959799509193959799565b600073ffffffffffffffffffffffffffffffffffffffff168273ffffffffffffffffffffffffffffffffffffffff16036114e05760006040517f64a0ae920000000000000000000000000000000000000000000000000000000081526004016114d79190613c9c565b60405180910390fd5b60006114f483836114ef612c25565b612c3f565b90508373ffffffffffffffffffffffffffffffffffffffff168173ffffffffffffffffffffffffffffffffffffffff161461156a578382826040517f64283d7b000000000000000000000000000000000000000000000000000000008152600401611561939291906148f1565b60405180910390fd5b50505050565b600d60009054906101000a900473ffffffffffffffffffffffffffffffffffffffff1673ffffffffffffffffffffffffffffffffffffffff163373ffffffffffffffffffffffffffffffffffffffff1614611600576040517f08c379a00000000000000000000000000000000000000000000000000000000081526004016115f790614974565b60405180910390fd5b600047905060008111611648576040517f08c379a000000000000000000000000000000000000000000000000000000000815260040161163f906149e0565b60405180910390fd5b8173ffffffffffffffffffffffffffffffffffffffff166108fc829081150290604051600060405180830381858888f1935050505015801561168e573d6000803e3d6000fd5b505050565b6116ae8383836040518060200160405280600081525061217f565b505050565b60008273ffffffffffffffffffffffffffffffffffffffff166008600084815260200190815260200160002060010160009054906101000a900473ffffffffffffffffffffffffffffffffffffffff1673ffffffffffffffffffffffffffffffffffffffff1614905092915050565b60086020528060005260406000206000915090508060000180546117459061466b565b80601f01602080910402602001604051908101604052809291908181526020018280546117719061466b565b80156117be5780601f10611793576101008083540402835291602001916117be565b820191906000526020600020905b8154815290600101906020018083116117a157829003601f168201915b5050505050908060010160009054906101000a900473ffffffffffffffffffffffffffffffffffffffff16908060020180546117f99061466b565b80601f01602080910402602001604051908101604052809291908181526020018280546118259061466b565b80156118725780601f1061184757610100808354040283529160200191611872565b820191906000526020600020905b81548152906001019060200180831161185557829003601f168201915b5050505050908060030180546118879061466b565b80601f01602080910402602001604051908101604052809291908181526020018280546118b39061466b565b80156119005780601f106118d557610100808354040283529160200191611900565b820191906000526020600020905b8154815290600101906020018083116118e357829003601f168201915b505050505090806004015490806005015490806006015490806007015490806008015490806009015490508a565b6000600a80549050905060005b6001826119489190614a00565b811015611ab55760005b600182846119609190614a00565b61196a9190614a00565b811015611aa15760086000600a60018461198491906147a3565b815481106119955761199461487a565b5b906000526020600020015481526020019081526020016000206008015460086000600a84815481106119ca576119c961487a565b5b90600052602060002001548152602001908152602001600020600801541015611a8e576000600a8281548110611a0357611a0261487a565b5b90600052602060002001549050600a600183611a1f91906147a3565b81548110611a3057611a2f61487a565b5b9060005260206000200154600a8381548110611a4f57611a4e61487a565b5b906000526020600020018190555080600a600184611a6d91906147a3565b81548110611a7e57611a7d61487a565b5b9060005260206000200181905550505b8080611a99906148a9565b915050611952565b508080611aad906148a9565b91505061193b565b507fb92a17c0697049bc646358c852778fe44478e089059bdda4cdf5bbbe2d59e4e4600a604051611ae69190614b0a565b60405180910390a150565b6000611afc82612b60565b9050919050565b6060806000600a8054905090508067ffffffffffffffff811115611b2a57611b296142b7565b5b604051908082528060200260200182016040528015611b585781602001602082028036833780820191505090505b5092508067ffffffffffffffff811115611b7557611b746142b7565b5b604051908082528060200260200182016040528015611ba35781602001602082028036833780820191505090505b50915060005b81811015611c5657600a8181548110611bc557611bc461487a565b5b9060005260206000200154848281518110611be357611be261487a565b5b60200260200101818152505060086000600a8381548110611c0757611c0661487a565b5b9060005260206000200154815260200190815260200160002060080154838281518110611c3757611c3661487a565b5b6020026020010181815250508080611c4e906148a9565b915050611ba9565b50509091565b60008073ffffffffffffffffffffffffffffffffffffffff168273ffffffffffffffffffffffffffffffffffffffff1603611ccf5760006040517f89c62b64000000000000000000000000000000000000000000000000000000008152600401611cc69190613c9c565b60405180910390fd5b600360008373ffffffffffffffffffffffffffffffffffffffff1673ffffffffffffffffffffffffffffffffffffffff168152602001908152602001600020549050919050565b611d1e612e59565b611d286000612ee0565b565b600d60009054906101000a900473ffffffffffffffffffffffffffffffffffffffff1681565b60608060606000600c8054905090508067ffffffffffffffff811115611d7957611d786142b7565b5b604051908082528060200260200182016040528015611da75781602001602082028036833780820191505090505b5093508067ffffffffffffffff811115611dc457611dc36142b7565b5b604051908082528060200260200182016040528015611df757816020015b6060815260200190600190039081611de25790505b5092508067ffffffffffffffff811115611e1457611e136142b7565b5b604051908082528060200260200182016040528015611e425781602001602082028036833780820191505090505b50915060005b81811015611fe8576000600c8281548110611e6657611e6561487a565b5b9060005260206000200154905080868381518110611e8757611e8661487a565b5b602002602001018181525050600860008281526020019081526020016000206000018054611eb49061466b565b80601f0160208091040260200160405190810160405280929190818152602001828054611ee09061466b565b8015611f2d5780601f10611f0257610100808354040283529160200191611f2d565b820191906000526020600020905b815481529060010190602001808311611f1057829003601f168201915b5050505050858381518110611f4557611f4461487a565b5b60200260200101819052506008600082815260200190815260200160002060010160009054906101000a900473ffffffffffffffffffffffffffffffffffffffff16848381518110611f9a57611f9961487a565b5b602002602001019073ffffffffffffffffffffffffffffffffffffffff16908173ffffffffffffffffffffffffffffffffffffffff1681525050508080611fe0906148a9565b915050611e48565b5050909192565b6000600660009054906101000a900473ffffffffffffffffffffffffffffffffffffffff16905090565b6060600180546120289061466b565b80601f01602080910402602001604051908101604052809291908181526020018280546120549061466b565b80156120a15780601f10612076576101008083540402835291602001916120a1565b820191906000526020600020905b81548152906001019060200180831161208457829003601f168201915b5050505050905090565b600c81815481106120bb57600080fd5b906000526020600020016000915090505481565b600d60009054906101000a900473ffffffffffffffffffffffffffffffffffffffff1673ffffffffffffffffffffffffffffffffffffffff163373ffffffffffffffffffffffffffffffffffffffff161461215f576040517f08c379a000000000000000000000000000000000000000000000000000000000815260040161215690614b78565b60405180910390fd5b80600b8190555050565b61217b612174612c25565b8383612fa6565b5050565b61218a84848461146e565b61219e612195612c25565b85858585613115565b50505050565b6000811180156121b657506009548111155b80156122255750600073ffffffffffffffffffffffffffffffffffffffff166008600083815260200190815260200160002060010160009054906101000a900473ffffffffffffffffffffffffffffffffffffffff1673ffffffffffffffffffffffffffffffffffffffff1614155b612264576040517f08c379a000000000000000000000000000000000000000000000000000000000815260040161225b906146e8565b60405180910390fd5b600a600b546122739190614b98565b3410156122b5576040517f08c379a00000000000000000000000000000000000000000000000000000000081526004016122ac90614c26565b60405180910390fd5b6000600a9050806008600084815260200190815260200160002060070160008282546122e191906147a3565b92505081905550817ff120576a440c61fd764775bbe696429a7578cfd5facb418a3db0c4901ecfbd9a826040516123189190613b01565b60405180910390a25050565b606061232f82612b60565b50600061233a6132c6565b9050600081511161235a5760405180602001604052806000815250612385565b80612364846132dd565b604051602001612375929190614c82565b6040516020818303038152906040525b915050919050565b600d60009054906101000a900473ffffffffffffffffffffffffffffffffffffffff1673ffffffffffffffffffffffffffffffffffffffff163373ffffffffffffffffffffffffffffffffffffffff161461241d576040517f08c379a000000000000000000000000000000000000000000000000000000000815260040161241490614cf2565b60405180910390fd5b60096000815480929190612430906148a9565b919050555060006009549050600082848661244b91906147a3565b61245591906147a3565b9050602881111561249b576040517f08c379a000000000000000000000000000000000000000000000000000000000815260040161249290614d84565b60405180910390fd5b60008160286124aa9190614a00565b90506040518061014001604052808b81526020018a73ffffffffffffffffffffffffffffffffffffffff16815260200189815260200188815260200187815260200186815260200185815260200182815260200160008152602001838152506008600085815260200190815260200160002060008201518160000190816125319190614f50565b5060208201518160010160006101000a81548173ffffffffffffffffffffffffffffffffffffffff021916908373ffffffffffffffffffffffffffffffffffffffff160217905550604082015181600201908161258e9190614f50565b5060608201518160030190816125a49190614f50565b506080820151816004015560a0820151816005015560c0820151816006015560e08201518160070155610100820151816008015561012082015181600901559050506125f089846133ab565b600a839080600181540180825580915050600190039060005260206000200160009091909190915055600c839080600181540180825580915050600190039060005260206000200160009091909190915055600e60008a73ffffffffffffffffffffffffffffffffffffffff1673ffffffffffffffffffffffffffffffffffffffff1681526020019081526020016000208390806001815401808255809150506001900390600052602060002001600090919091909150558873ffffffffffffffffffffffffffffffffffffffff16837fa2bad51fd096fded505c462668af1424620df54cefdffc9ef304df0f2883c59c8c6040516126ef9190613bac565b60405180910390a36126ff61192e565b50505050505050505050565b606060006060806000806000806000806000600860008d81526020019081526020016000206040518061014001604052908160008201805461274c9061466b565b80601f01602080910402602001604051908101604052809291908181526020018280546127789061466b565b80156127c55780601f1061279a576101008083540402835291602001916127c5565b820191906000526020600020905b8154815290600101906020018083116127a857829003601f168201915b505050505081526020016001820160009054906101000a900473ffffffffffffffffffffffffffffffffffffffff1673ffffffffffffffffffffffffffffffffffffffff1673ffffffffffffffffffffffffffffffffffffffff1681526020016002820180546128349061466b565b80601f01602080910402602001604051908101604052809291908181526020018280546128609061466b565b80156128ad5780601f10612882576101008083540402835291602001916128ad565b820191906000526020600020905b81548152906001019060200180831161289057829003601f168201915b505050505081526020016003820180546128c69061466b565b80601f01602080910402602001604051908101604052809291908181526020018280546128f29061466b565b801561293f5780601f106129145761010080835404028352916020019161293f565b820191906000526020600020905b81548152906001019060200180831161292257829003601f168201915b5050505050815260200160048201548152602001600582015481526020016006820154815260200160078201548152602001600882015481526020016009820154815250509050806000015181602001518260400151836060015184608001518560a001518660c001518760e001518861010001518961012001519a509a509a509a509a509a509a509a509a509a50509193959799509193959799565b6000600560008473ffffffffffffffffffffffffffffffffffffffff1673ffffffffffffffffffffffffffffffffffffffff16815260200190815260200160002060008373ffffffffffffffffffffffffffffffffffffffff1673ffffffffffffffffffffffffffffffffffffffff16815260200190815260200160002060009054906101000a900460ff16905092915050565b612a78612e59565b600073ffffffffffffffffffffffffffffffffffffffff168173ffffffffffffffffffffffffffffffffffffffff1603612aea5760006040517f1e4fbdf7000000000000000000000000000000000000000000000000000000008152600401612ae19190613c9c565b60405180910390fd5b612af381612ee0565b50565b60007f01ffc9a7000000000000000000000000000000000000000000000000000000007bffffffffffffffffffffffffffffffffffffffffffffffffffffffff1916827bffffffffffffffffffffffffffffffffffffffffffffffffffffffff1916149050919050565b600080612b6c836133c9565b9050600073ffffffffffffffffffffffffffffffffffffffff168173ffffffffffffffffffffffffffffffffffffffff1603612bdf57826040517f7e273289000000000000000000000000000000000000000000000000000000008152600401612bd69190613b01565b60405180910390fd5b80915050919050565b60006004600083815260200190815260200160002060009054906101000a900473ffffffffffffffffffffffffffffffffffffffff169050919050565b600033905090565b612c3a8383836001613406565b505050565b600080612c4b846133c9565b9050600073ffffffffffffffffffffffffffffffffffffffff168373ffffffffffffffffffffffffffffffffffffffff1614612c8d57612c8c8184866135cb565b5b600073ffffffffffffffffffffffffffffffffffffffff168173ffffffffffffffffffffffffffffffffffffffff1614612d1e57612ccf600085600080613406565b6001600360008373ffffffffffffffffffffffffffffffffffffffff1673ffffffffffffffffffffffffffffffffffffffff168152602001908152602001600020600082825403925050819055505b600073ffffffffffffffffffffffffffffffffffffffff168573ffffffffffffffffffffffffffffffffffffffff1614612da1576001600360008773ffffffffffffffffffffffffffffffffffffffff1673ffffffffffffffffffffffffffffffffffffffff168152602001908152602001600020600082825401925050819055505b846002600086815260200190815260200160002060006101000a81548173ffffffffffffffffffffffffffffffffffffffff021916908373ffffffffffffffffffffffffffffffffffffffff160217905550838573ffffffffffffffffffffffffffffffffffffffff168273ffffffffffffffffffffffffffffffffffffffff167fddf252ad1be2c89b69c2b068fc378daa952ba7f163c4a11628f55a4df523b3ef60405160405180910390a4809150509392505050565b612e61612c25565b73ffffffffffffffffffffffffffffffffffffffff16612e7f611fef565b73ffffffffffffffffffffffffffffffffffffffff1614612ede57612ea2612c25565b6040517f118cdaa7000000000000000000000000000000000000000000000000000000008152600401612ed59190613c9c565b60405180910390fd5b565b6000600660009054906101000a900473ffffffffffffffffffffffffffffffffffffffff16905081600660006101000a81548173ffffffffffffffffffffffffffffffffffffffff021916908373ffffffffffffffffffffffffffffffffffffffff1602179055508173ffffffffffffffffffffffffffffffffffffffff168173ffffffffffffffffffffffffffffffffffffffff167f8be0079c531659141344cd1fd0a4f28419497f9722a3daafe3b4186f6b6457e060405160405180910390a35050565b600073ffffffffffffffffffffffffffffffffffffffff168273ffffffffffffffffffffffffffffffffffffffff160361301757816040517f5b08ba1800000000000000000000000000000000000000000000000000000000815260040161300e9190613c9c565b60405180910390fd5b80600560008573ffffffffffffffffffffffffffffffffffffffff1673ffffffffffffffffffffffffffffffffffffffff16815260200190815260200160002060008473ffffffffffffffffffffffffffffffffffffffff1673ffffffffffffffffffffffffffffffffffffffff16815260200190815260200160002060006101000a81548160ff0219169083151502179055508173ffffffffffffffffffffffffffffffffffffffff168373ffffffffffffffffffffffffffffffffffffffff167f17307eab39ab6107e8899845ad3d59bd9653f200f220920489ca2b5937696c31836040516131089190613a74565b60405180910390a3505050565b60008373ffffffffffffffffffffffffffffffffffffffff163b11156132bf578273ffffffffffffffffffffffffffffffffffffffff1663150b7a02868685856040518563ffffffff1660e01b81526004016131749493929190615077565b6020604051808303816000875af19250505080156131b057506040513d601f19601f820116820180604052508101906131ad91906150d8565b60015b613234573d80600081146131e0576040519150601f19603f3d011682016040523d82523d6000602084013e6131e5565b606091505b50600081510361322c57836040517f64a0ae920000000000000000000000000000000000000000000000000000000081526004016132239190613c9c565b60405180910390fd5b805181602001fd5b63150b7a0260e01b7bffffffffffffffffffffffffffffffffffffffffffffffffffffffff1916817bffffffffffffffffffffffffffffffffffffffffffffffffffffffff1916146132bd57836040517f64a0ae920000000000000000000000000000000000000000000000000000000081526004016132b49190613c9c565b60405180910390fd5b505b5050505050565b606060405180602001604052806000815250905090565b6060600060016132ec8461368f565b01905060008167ffffffffffffffff81111561330b5761330a6142b7565b5b6040519080825280601f01601f19166020018201604052801561333d5781602001600182028036833780820191505090505b509050600082602001820190505b6001156133a0578080600190039150507f3031323334353637383961626364656600000000000000000000000000000000600a86061a8153600a858161339457613393615105565b5b0494506000850361334b575b819350505050919050565b6133c58282604051806020016040528060008152506137e2565b5050565b60006002600083815260200190815260200160002060009054906101000a900473ffffffffffffffffffffffffffffffffffffffff169050919050565b808061343f5750600073ffffffffffffffffffffffffffffffffffffffff168273ffffffffffffffffffffffffffffffffffffffff1614155b1561357357600061344f84612b60565b9050600073ffffffffffffffffffffffffffffffffffffffff168373ffffffffffffffffffffffffffffffffffffffff16141580156134ba57508273ffffffffffffffffffffffffffffffffffffffff168173ffffffffffffffffffffffffffffffffffffffff1614155b80156134cd57506134cb81846129dc565b155b1561350f57826040517fa9fbf51f0000000000000000000000000000000000000000000000000000000081526004016135069190613c9c565b60405180910390fd5b811561357157838573ffffffffffffffffffffffffffffffffffffffff168273ffffffffffffffffffffffffffffffffffffffff167f8c5be1e5ebec7d5bd14f71427d1e84f3dd0314c0f7b2291e5b200ac8c7c3b92560405160405180910390a45b505b836004600085815260200190815260200160002060006101000a81548173ffffffffffffffffffffffffffffffffffffffff021916908373ffffffffffffffffffffffffffffffffffffffff16021790555050505050565b6135d6838383613806565b61368a57600073ffffffffffffffffffffffffffffffffffffffff168373ffffffffffffffffffffffffffffffffffffffff160361364b57806040517f7e2732890000000000000000000000000000000000000000000000000000000081526004016136429190613b01565b60405180910390fd5b81816040517f177e802f000000000000000000000000000000000000000000000000000000008152600401613681929190615134565b60405180910390fd5b505050565b600080600090507a184f03e93ff9f4daa797ed6e38ed64bf6a1f01000000000000000083106136ed577a184f03e93ff9f4daa797ed6e38ed64bf6a1f01000000000000000083816136e3576136e2615105565b5b0492506040810190505b6d04ee2d6d415b85acef8100000000831061372a576d04ee2d6d415b85acef810000000083816137205761371f615105565b5b0492506020810190505b662386f26fc10000831061375957662386f26fc10000838161374f5761374e615105565b5b0492506010810190505b6305f5e1008310613782576305f5e100838161377857613777615105565b5b0492506008810190505b61271083106137a757612710838161379d5761379c615105565b5b0492506004810190505b606483106137ca57606483816137c0576137bf615105565b5b0492506002810190505b600a83106137d9576001810190505b80915050919050565b6137ec83836138c7565b6138016137f7612c25565b6000858585613115565b505050565b60008073ffffffffffffffffffffffffffffffffffffffff168373ffffffffffffffffffffffffffffffffffffffff16141580156138be57508273ffffffffffffffffffffffffffffffffffffffff168473ffffffffffffffffffffffffffffffffffffffff16148061387f575061387e84846129dc565b5b806138bd57508273ffffffffffffffffffffffffffffffffffffffff166138a583612be8565b73ffffffffffffffffffffffffffffffffffffffff16145b5b90509392505050565b600073ffffffffffffffffffffffffffffffffffffffff168273ffffffffffffffffffffffffffffffffffffffff16036139395760006040517f64a0ae920000000000000000000000000000000000000000000000000000000081526004016139309190613c9c565b60405180910390fd5b600061394783836000612c3f565b9050600073ffffffffffffffffffffffffffffffffffffffff168173ffffffffffffffffffffffffffffffffffffffff16146139bb5760006040517f73c6ac6e0000000000000000000000000000000000000000000000000000000081526004016139b29190613c9c565b60405180910390fd5b505050565b6000604051905090565b600080fd5b600080fd5b60007fffffffff0000000000000000000000000000000000000000000000000000000082169050919050565b613a09816139d4565b8114613a1457600080fd5b50565b600081359050613a2681613a00565b92915050565b600060208284031215613a4257613a416139ca565b5b6000613a5084828501613a17565b91505092915050565b60008115159050919050565b613a6e81613a59565b82525050565b6000602082019050613a896000830184613a65565b92915050565b6000819050919050565b613aa281613a8f565b8114613aad57600080fd5b50565b600081359050613abf81613a99565b92915050565b600060208284031215613adb57613ada6139ca565b5b6000613ae984828501613ab0565b91505092915050565b613afb81613a8f565b82525050565b6000602082019050613b166000830184613af2565b92915050565b600081519050919050565b600082825260208201905092915050565b60005b83811015613b56578082015181840152602081019050613b3b565b60008484015250505050565b6000601f19601f8301169050919050565b6000613b7e82613b1c565b613b888185613b27565b9350613b98818560208601613b38565b613ba181613b62565b840191505092915050565b60006020820190508181036000830152613bc68184613b73565b905092915050565b60008060008060008060c08789031215613beb57613bea6139ca565b5b6000613bf989828a01613ab0565b9650506020613c0a89828a01613ab0565b9550506040613c1b89828a01613ab0565b9450506060613c2c89828a01613ab0565b9350506080613c3d89828a01613ab0565b92505060a0613c4e89828a01613ab0565b9150509295509295509295565b600073ffffffffffffffffffffffffffffffffffffffff82169050919050565b6000613c8682613c5b565b9050919050565b613c9681613c7b565b82525050565b6000602082019050613cb16000830184613c8d565b92915050565b613cc081613c7b565b8114613ccb57600080fd5b50565b600081359050613cdd81613cb7565b92915050565b60008060408385031215613cfa57613cf96139ca565b5b6000613d0885828601613cce565b9250506020613d1985828601613ab0565b9150509250929050565b600060208284031215613d3957613d386139ca565b5b6000613d4784828501613cce565b91505092915050565b600081519050919050565b600082825260208201905092915050565b6000819050602082019050919050565b613d8581613a8f565b82525050565b6000613d978383613d7c565b60208301905092915050565b6000602082019050919050565b6000613dbb82613d50565b613dc58185613d5b565b9350613dd083613d6c565b8060005b83811015613e01578151613de88882613d8b565b9750613df383613da3565b925050600181019050613dd4565b5085935050505092915050565b600081519050919050565b600082825260208201905092915050565b6000819050602082019050919050565b600082825260208201905092915050565b6000613e5682613b1c565b613e608185613e3a565b9350613e70818560208601613b38565b613e7981613b62565b840191505092915050565b6000613e908383613e4b565b905092915050565b6000602082019050919050565b6000613eb082613e0e565b613eba8185613e19565b935083602082028501613ecc85613e2a565b8060005b85811015613f085784840389528151613ee98582613e84565b9450613ef483613e98565b925060208a01995050600181019050613ed0565b50829750879550505050505092915050565b6000610140820190508181036000830152613f35818d613db0565b90508181036020830152613f49818c613ea5565b90508181036040830152613f5d818b613ea5565b90508181036060830152613f71818a613ea5565b90508181036080830152613f858189613db0565b905081810360a0830152613f998188613db0565b905081810360c0830152613fad8187613db0565b905081810360e0830152613fc18186613db0565b9050818103610100830152613fd68185613db0565b9050818103610120830152613feb8184613db0565b90509b9a5050505050505050505050565b600080600060608486031215614015576140146139ca565b5b600061402386828701613cce565b935050602061403486828701613cce565b925050604061404586828701613ab0565b9150509250925092565b600061014082019050818103600083015261406a818d613b73565b9050614079602083018c613c8d565b818103604083015261408b818b613b73565b9050818103606083015261409f818a613b73565b90506140ae6080830189613af2565b6140bb60a0830188613af2565b6140c860c0830187613af2565b6140d560e0830186613af2565b6140e3610100830185613af2565b6140f1610120830184613af2565b9b9a5050505050505050505050565b6000604082019050818103600083015261411a8185613db0565b9050818103602083015261412e8184613db0565b90509392505050565b600081519050919050565b600082825260208201905092915050565b6000819050602082019050919050565b61416c81613c7b565b82525050565b600061417e8383614163565b60208301905092915050565b6000602082019050919050565b60006141a282614137565b6141ac8185614142565b93506141b783614153565b8060005b838110156141e85781516141cf8882614172565b97506141da8361418a565b9250506001810190506141bb565b5085935050505092915050565b6000606082019050818103600083015261420f8186613db0565b905081810360208301526142238185613ea5565b905081810360408301526142378184614197565b9050949350505050565b61424a81613a59565b811461425557600080fd5b50565b60008135905061426781614241565b92915050565b60008060408385031215614284576142836139ca565b5b600061429285828601613cce565b92505060206142a385828601614258565b9150509250929050565b600080fd5b600080fd5b7f4e487b7100000000000000000000000000000000000000000000000000000000600052604160045260246000fd5b6142ef82613b62565b810181811067ffffffffffffffff8211171561430e5761430d6142b7565b5b80604052505050565b60006143216139c0565b905061432d82826142e6565b919050565b600067ffffffffffffffff82111561434d5761434c6142b7565b5b61435682613b62565b9050602081019050919050565b82818337600083830152505050565b600061438561438084614332565b614317565b9050828152602081018484840111156143a1576143a06142b2565b5b6143ac848285614363565b509392505050565b600082601f8301126143c9576143c86142ad565b5b81356143d9848260208601614372565b91505092915050565b600080600080608085870312156143fc576143fb6139ca565b5b600061440a87828801613cce565b945050602061441b87828801613cce565b935050604061442c87828801613ab0565b925050606085013567ffffffffffffffff81111561444d5761444c6139cf565b5b614459878288016143b4565b91505092959194509250565b600067ffffffffffffffff8211156144805761447f6142b7565b5b61448982613b62565b9050602081019050919050565b60006144a96144a484614465565b614317565b9050828152602081018484840111156144c5576144c46142b2565b5b6144d0848285614363565b509392505050565b600082601f8301126144ed576144ec6142ad565b5b81356144fd848260208601614496565b91505092915050565b600080600080600080600060e0888a031215614525576145246139ca565b5b600088013567ffffffffffffffff811115614543576145426139cf565b5b61454f8a828b016144d8565b97505060206145608a828b01613cce565b965050604088013567ffffffffffffffff811115614581576145806139cf565b5b61458d8a828b016144d8565b955050606088013567ffffffffffffffff8111156145ae576145ad6139cf565b5b6145ba8a828b016144d8565b94505060806145cb8a828b01613ab0565b93505060a06145dc8a828b01613ab0565b92505060c06145ed8a828b01613ab0565b91505092959891949750929550565b60008060408385031215614613576146126139ca565b5b600061462185828601613cce565b925050602061463285828601613cce565b9150509250929050565b7f4e487b7100000000000000000000000000000000000000000000000000000000600052602260045260246000fd5b6000600282049050600182168061468357607f821691505b6020821081036146965761469561463c565b5b50919050565b7f4167656e7420646f6573206e6f74206578697374000000000000000000000000600082015250565b60006146d2601483613b27565b91506146dd8261469c565b602082019050919050565b60006020820190508181036000830152614701816146c5565b9050919050565b7f4f6e6c79206f776e65722063616e20757064617465206167656e740000000000600082015250565b600061473e601b83613b27565b915061474982614708565b602082019050919050565b6000602082019050818103600083015261476d81614731565b9050919050565b7f4e487b7100000000000000000000000000000000000000000000000000000000600052601160045260246000fd5b60006147ae82613a8f565b91506147b983613a8f565b92508282019050808211156147d1576147d0614774565b5b92915050565b7f546f74616c20706f696e74732063616e6e6f74206368616e6765000000000000600082015250565b600061480d601a83613b27565b9150614818826147d7565b602082019050919050565b6000602082019050818103600083015261483c81614800565b9050919050565b60006060820190506148586000830186613af2565b6148656020830185613af2565b6148726040830184613af2565b949350505050565b7f4e487b7100000000000000000000000000000000000000000000000000000000600052603260045260246000fd5b60006148b482613a8f565b91507fffffffffffffffffffffffffffffffffffffffffffffffffffffffffffffffff82036148e6576148e5614774565b5b600182019050919050565b60006060820190506149066000830186613c8d565b6149136020830185613af2565b6149206040830184613c8d565b949350505050565b7f4f6e6c792061646d696e2063616e207769746864726177000000000000000000600082015250565b600061495e601783613b27565b915061496982614928565b602082019050919050565b6000602082019050818103600083015261498d81614951565b9050919050565b7f4e6f2062616c616e636520746f20776974686472617700000000000000000000600082015250565b60006149ca601683613b27565b91506149d582614994565b602082019050919050565b600060208201905081810360008301526149f9816149bd565b9050919050565b6000614a0b82613a8f565b9150614a1683613a8f565b9250828203905081811115614a2e57614a2d614774565b5b92915050565b600081549050919050565b60008190508160005260206000209050919050565b60008160001c9050919050565b6000819050919050565b6000614a7e614a7983614a54565b614a61565b9050919050565b6000614a918254614a6b565b9050919050565b6000600182019050919050565b6000614ab082614a34565b614aba8185613d5b565b9350614ac583614a3f565b8060005b83811015614afd57614ada82614a85565b614ae48882613d8b565b9750614aef83614a98565b925050600181019050614ac9565b5085935050505092915050565b60006020820190508181036000830152614b248184614aa5565b905092915050565b7f4f6e6c792061646d696e2063616e207570646174652070726963650000000000600082015250565b6000614b62601b83613b27565b9150614b6d82614b2c565b602082019050919050565b60006020820190508181036000830152614b9181614b55565b9050919050565b6000614ba382613a8f565b9150614bae83613a8f565b9250828202614bbc81613a8f565b91508282048414831517614bd357614bd2614774565b5b5092915050565b7f496e73756666696369656e74204554482073656e740000000000000000000000600082015250565b6000614c10601583613b27565b9150614c1b82614bda565b602082019050919050565b60006020820190508181036000830152614c3f81614c03565b9050919050565b600081905092915050565b6000614c5c82613b1c565b614c668185614c46565b9350614c76818560208601613b38565b80840191505092915050565b6000614c8e8285614c51565b9150614c9a8284614c51565b91508190509392505050565b7f4f6e6c79206f776e65722063616e20637265617465206167656e740000000000600082015250565b6000614cdc601b83613b27565b9150614ce782614ca6565b602082019050919050565b60006020820190508181036000830152614d0b81614ccf565b9050919050565b7f43616e6e6f7420616c6c6f63617465206d6f7265207468616e20343020696e6960008201527f7469616c20706f696e7473000000000000000000000000000000000000000000602082015250565b6000614d6e602b83613b27565b9150614d7982614d12565b604082019050919050565b60006020820190508181036000830152614d9d81614d61565b9050919050565b60008190508160005260206000209050919050565b60006020601f8301049050919050565b600082821b905092915050565b600060088302614e067fffffffffffffffffffffffffffffffffffffffffffffffffffffffffffffffff82614dc9565b614e108683614dc9565b95508019841693508086168417925050509392505050565b6000819050919050565b6000614e4d614e48614e4384613a8f565b614e28565b613a8f565b9050919050565b6000819050919050565b614e6783614e32565b614e7b614e7382614e54565b848454614dd6565b825550505050565b600090565b614e90614e83565b614e9b818484614e5e565b505050565b5b81811015614ebf57614eb4600082614e88565b600181019050614ea1565b5050565b601f821115614f0457614ed581614da4565b614ede84614db9565b81016020851015614eed578190505b614f01614ef985614db9565b830182614ea0565b50505b505050565b600082821c905092915050565b6000614f2760001984600802614f09565b1980831691505092915050565b6000614f408383614f16565b9150826002028217905092915050565b614f5982613b1c565b67ffffffffffffffff811115614f7257614f716142b7565b5b614f7c825461466b565b614f87828285614ec3565b600060209050601f831160018114614fba5760008415614fa8578287015190505b614fb28582614f34565b86555061501a565b601f198416614fc886614da4565b60005b82811015614ff057848901518255600182019150602085019450602081019050614fcb565b8683101561500d5784890151615009601f891682614f16565b8355505b6001600288020188555050505b505050505050565b600081519050919050565b600082825260208201905092915050565b600061504982615022565b615053818561502d565b9350615063818560208601613b38565b61506c81613b62565b840191505092915050565b600060808201905061508c6000830187613c8d565b6150996020830186613c8d565b6150a66040830185613af2565b81810360608301526150b8818461503e565b905095945050505050565b6000815190506150d281613a00565b92915050565b6000602082840312156150ee576150ed6139ca565b5b60006150fc848285016150c3565b91505092915050565b7f4e487b7100000000000000000000000000000000000000000000000000000000600052601260045260246000fd5b60006040820190506151496000830185613c8d565b6151566020830184613af2565b939250505056fea264697066735822122027b2ee9ecab853510b75788024b5b48b9d896ea0a4792cee0c246148f3895a0a64736f6c63430008140033",
  "linkReferences": {},
  "deployedLinkReferences": {}
}